:020000040800F2
:1000000000280020C5140008551400085B140008DF
:1000100061140008671400086D1400080000000057
:100020000000000000000000000000007314000841
:100030007F140008000000008B14000897140008CB
:100040000D1500080D1500080D1500080D15000808
:100050000D1500080D1500080D1500080D150008F8
:100060000D1500080D1500080D1500080D150008E8
:100070000D1500080D1500080D1500080D150008D8
:100080000D1500080D1500080D1500080D150008C8
:100090000D1500080D1500080D1500080D150008B8
:1000A0000D1500080D1500080D1500080D150008A8
:1000B000A51400080D150008000000000D1500082B
:1000C0000D15000800000000000000000D150008DC
:1000D000000000000D1500080D15000800000000CC
:1000E0000D1500080D1500080D1500080000000092
:1000F0000000000000000000000000000000000000
:0C01000000000000000000005FF808F1A3
:1001100010B5054C237833B9044B13B10448AFF341
:1001200000800123237010BDA80000200000000003
:100130003C39000808B5034B1BB103490348AFF332
:10014000008008BD00000000AC0000203C39000821
:1001500081F0004102E000BF83F0004330B54FEA78
:1001600041044FEA430594EA050F08BF90EA020FE5
:100170001FBF54EA000C55EA020C7FEA645C7FEA78
:10018000655C00F0E2804FEA5454D4EB5555B8BF9B
:100190006D420CDD2C4480EA020281EA030382EA0C
:1001A000000083EA010180EA020281EA0303362D9E
:1001B00088BF30BD11F0004F4FEA01314FF4801C71
:1001C0004CEA113102D0404261EB410113F0004F83
:1001D0004FEA03334CEA133302D0524263EB43033A
:1001E00094EA050F00F0A780A4F10104D5F1200ED8
:1001F0000DDB02FA0EFC22FA05F2801841F1000133
:1002000003FA0EF2801843FA05F359410EE0A5F106
:1002100020050EF1200E012A03FA0EFC28BF4CF037
:10022000020C43FA05F3C01851EBE37101F00045ED
:1002300007D54FF0000EDCF1000C7EEB00006EEBFA
:100240000101B1F5801F1BD3B1F5001F0CD3490884
:100250005FEA30004FEA3C0C04F101044FEA4452DB
:1002600012F5800F80F09A80BCF1004F08BF5FEA62
:10027000500C50F1000041EB045141EA050130BD42
:100280005FEA4C0C404141EB0101013C28BFB1F554
:10029000801FE9D291F0000F04BF01460020B1FA9F
:1002A00081F308BF2033A3F10B03B3F120020CDA72
:1002B0000C3208DD02F1140CC2F10C0201FA0CF050
:1002C00021FA02F10CE002F11402D8BFC2F1200CB5
:1002D00001FA02F120FA0CFCDCBF41EA0C0190406B
:1002E000E41AA2BF01EB0451294330BD6FEA0404B4
:1002F0001F3C1CDA0C340EDC04F11404C4F120029F
:1003000020FA04F001FA02F340EA030021FA04F3B0
:1003100045EA030130BDC4F10C04C4F1200220FA07
:1003200002F001FA04F340EA0300294630BD21FA45
:1003300004F0294630BD94F0000F83F4801306BF0B
:1003400081F480110134013D4EE77FEA645C18BFFF
:100350007FEA655C29D094EA050F08BF90EA020F96
:1003600005D054EA000C04BF1946104630BD91EA8E
:10037000030F1EBF0021002030BD5FEA545C05D191
:100380004000494128BF41F0004130BD14F58004D0
:100390003CBF01F5801130BD01F0004545F0FE4144
:1003A00041F470014FF0000030BD7FEA645C1ABF79
:1003B000194610467FEA655C1CBF0B46024650EAB0
:1003C000013406BF52EA033591EA030F41F40021DC
:1003D00030BD00BF90F0000F04BF0021704730B562
:1003E0004FF4806404F132044FF000054FF0000137
:1003F00050E700BF90F0000F04BF0021704730B5F8
:100400004FF4806404F1320410F0004548BF4042CC
:100410004FF000013EE700BF42004FEAE2014FEA21
:1004200031014FEA02701FBF12F07F4393F07F4FFC
:1004300081F06051704732F07F4208BF704793F0FF
:100440007F4F04BF41F40021704730B54FF4607412
:1004500001F0004521F000411CE700BF50EA010215
:1004600008BF704730B54FF000050AE050EA0102BE
:1004700008BF704730B511F0004502D5404261EB2E
:1004800041014FF4806404F132045FEA915C3FF46F
:10049000D8AE4FF003025FEADC0C18BF03325FEA0C
:1004A000DC0C18BF033202EBDC02C2F1200300FABD
:1004B00003FC20FA02F001FA03FE40EA0E0021FAE2
:1004C00002F11444BDE600BF70B54FF0FF0C4CF4D0
:1004D000E06C1CEA11541DBF1CEA135594EA0C0F82
:1004E00095EA0C0F00F0DEF82C4481EA030621EABD
:1004F0004C5123EA4C5350EA013518BF52EA0335F8
:1005000041F4801143F4801338D0A0FB02CE4FF0A9
:100510000005E1FB02E506F00042E0FB03E54FF0D9
:100520000006E1FB03569CF0000F18BF4EF0010ED1
:10053000A4F1FF04B6F5007F64F5407404D25FEACD
:100540004E0E6D4146EB060642EAC62141EA555180
:100550004FEAC52040EA5E504FEACE2EB4F1FD0CC2
:1005600088BFBCF5E06F1ED8BEF1004F08BF5FEA40
:10057000500E50F1000041EB045170BD06F00046F2
:1005800046EA010140EA020081EA0301B4EB5C049F
:10059000C2BFD4EB0C0541EA045170BD41F4801197
:1005A0004FF0000E013C00F3AB8014F1360FDEBFBC
:1005B000002001F0004170BDC4F10004203C35DA98
:1005C0000C341BDC04F11404C4F1200500FA05F31B
:1005D00020FA04F001FA05F240EA020001F00042BC
:1005E00021F0004110EBD37021FA04F642EB060132
:1005F0005EEA430E08BF20EAD37070BDC4F10C045C
:10060000C4F1200500FA04F320FA05F001FA04F21F
:1006100040EA020001F0004110EBD37041F100010B
:100620005EEA430E08BF20EAD37070BDC4F1200516
:1006300000FA05F24EEA020E20FA04F301FA05F27E
:1006400043EA020321FA04F001F0004121FA04F226
:1006500020EA020000EBD3705EEA430E08BF20EAF6
:10066000D37070BD94F0000F0FD101F00046400030
:1006700041EB010111F4801F08BF013CF7D041EAB2
:10068000060195F0000F18BF704703F000465200B6
:1006900043EB030313F4801F08BF013DF7D043EA87
:1006A0000603704794EA0C0F0CEA135518BF95EA3D
:1006B0000C0F0CD050EA410618BF52EA4306D1D1C4
:1006C00081EA030101F000414FF0000070BD50EAE3
:1006D000410606BF1046194652EA430619D094EA6D
:1006E0000C0F02D150EA013613D195EA0C0F05D157
:1006F00052EA03361CBF104619460AD181EA0301AB
:1007000001F0004141F0FE4141F470014FF0000062
:1007100070BD41F0FE4141F4780170BD70B54FF0FD
:10072000FF0C4CF4E06C1CEA11541DBF1CEA13557D
:1007300094EA0C0F95EA0C0F00F0A7F8A4EB05045F
:1007400081EA030E52EA03354FEA013100F0888056
:100750004FEA03334FF0805545EA131343EA12631F
:100760004FEA022245EA111545EA10654FEA0026D4
:100770000EF000419D4208BF964244F1FD0404F58D
:10078000407402D25B084FEA3202B61A65EB0305E9
:100790005B084FEA32024FF480104FF4002CB6EBA6
:1007A000020E75EB030E22BFB61A754640EA0C0026
:1007B0005B084FEA3202B6EB020E75EB030E22BF66
:1007C000B61A754640EA5C005B084FEA3202B6EBA7
:1007D000020E75EB030E22BFB61A754640EA9C0066
:1007E0005B084FEA3202B6EB020E75EB030E22BF36
:1007F000B61A754640EADC0055EA060E18D04FEAF4
:10080000051545EA16754FEA06164FEAC30343EA93
:1008100052734FEAC2025FEA1C1CC0D111F4801F60
:100820000BD141EA00014FF000004FF0004CB6E759
:1008300011F4801F04BF01430020B4F1FD0C88BFF8
:10084000BCF5E06F3FF6AFAEB5EB030C04BFB6EB03
:10085000020C5FEA500C50F1000041EB045170BDF6
:100860000EF0004E4EEA113114EB5C04C2BFD4EB23
:100870000C0541EA045170BD41F480114FF0000EA7
:10088000013C90E645EA060E8DE60CEA135594EA23
:100890000C0F08BF95EA0C0F3FF43BAF94EA0C0F26
:1008A0000AD150EA01347FF434AF95EA0C0F7FF49B
:1008B00025AF104619462CE795EA0C0F06D152EAEF
:1008C00003353FF4FDAE1046194622E750EA4106D3
:1008D00018BF52EA43067FF4C5AE50EA41047FF4E4
:1008E0000DAF52EA43057FF4EBAE12E74FF0FF3C49
:1008F00006E000BF4FF0010C02E000BF4FF0010C1A
:100900004DF804CD4FEA410C7FEA6C5C4FEA430C92
:1009100018BF7FEA6C5C1BD001B050EA410C0CBFE1
:1009200052EA430C91EA030F02BF90EA020F002043
:10093000704710F1000F91EA030F58BF994208BFAA
:1009400090422CBFD8176FEAE37040F00100704767
:100950004FEA410C7FEA6C5C02D150EA013C07D1BE
:100960004FEA430C7FEA6C5CD6D152EA033CD3D009
:100970005DF8040B704700BF8446104662468C4603
:100980001946634600E000BF01B5FFF7B7FF002836
:1009900048BF10F1000F01BD4DF808EDFFF7F4FF5F
:1009A0000CBF012000205DF808FB00BF4DF808EDEA
:1009B000FFF7EAFF34BF012000205DF808FB00BF0D
:1009C0004DF808EDFFF7E0FF94BF012000205DF82F
:1009D00008FB00BF4DF808EDFFF7CEFF94BF0120E4
:1009E00000205DF808FB00BF4DF808EDFFF7C4FFDD
:1009F00034BF012000205DF808FB00BF4FEA410C26
:100A00007FEA6C5C02D150EA013C0AD14FEA430C08
:100A10007FEA6C5C02D152EA033C02D14FF0000045
:100A200070474FF0010070474A0011D212F50012D2
:100A300011D20DD56FF47873B3EB62520ED44FEA36
:100A4000C12343F0004343EA505323FA02F07047B6
:100A50004FF00000704750EA013002D14FF0FF30F4
:100A600070474FF00000704780B582B000AF7860EB
:100A70007B68022B26D07B68022B36DC7B68002B40
:100A800003D07B68012B0AD02FE01C4B01221A6097
:100A9000002000F0D3F81A4B00221A602AE0174B0E
:100AA00001225A60164B1B685A1C15490A601846E9
:100AB00000F0C4F8124B1B68092B18DD104B002204
:100AC0001A6014E00D4B01229A600D4B1B685A1EF0
:100AD0000B490A60184600F0B1F8094B1B68002B5F
:100AE00007DA074B09221A6003E000BF02E000BFEB
:100AF00000E000BF00BF0837BD4680BDC400002035
:100B0000D000002080B582B000AF00237B607DE084
:100B1000434A7B6852F8232042497B6841F82320EE
:100B2000414A7B6852F823203D497B6841F82320E5
:100B30007868FFF75FFC02460B464FF000004FF06D
:100B4000804102F017F84FF00002384BFFF7BCFC71
:100B500002460B4610461946FFF766FF03469BB256
:100B60001946334800F0C0FF034619462E4A7B68F9
:100B700042F823102B4A7B6852F8232028497B68CF
:100B800051F823309A423ED1254A7B6852F82320FF
:100B900025497B6851F823309A4234D1254A7B6835
:100BA00052F8232020497B6851F823309A4215D00F
:100BB0001D4A7B6852F823201E497B6841F8232098
:100BC000194A7B6852F82330002B1CD17868FFF754
:100BD0004BFF194B4FF496721A6014E0164B1B68CA
:100BE000013B154A1360144B1B68002B0BD10E4AB6
:100BF0007B6852F82330002B02D17868FFF734FF6E
:100C00000D4B64221A607B6801337B607B68022B8A
:100C10007FF77EAF00BF00BF0837BD4680BD00BF75
:100C20000C00002000000020180000200000C04040
:100C300000100140240000203000002080B582B068
:100C400000AF78607B68002B27D100224021CF487D
:100C500000F061FF00228021CC4800F05CFF002200
:100C60004FF48071C94800F056FF00224FF4007124
:100C7000C64800F050FF00224FF48061C34800F0E6
:100C80004AFF00224FF40061C04800F044FF0122F7
:100C90004FF48051BD4800F03EFF7B68012B27D107
:100CA00001224021B94800F036FF00228021B748D8
:100CB00000F031FF00224FF48071B44800F02BFFA8
:100CC00001224FF40071B14800F025FF01224FF4DA
:100CD0008061AE4800F01FFF01224FF40061AB4875
:100CE00000F019FF01224FF48051A84800F013FFD3
:100CF0007B68022B27D100224021A44800F00BFF83
:100D000000228021A14800F006FF01224FF48071EB
:100D10009E4800F000FF00224FF400719B4800F055
:100D2000FAFE00224FF48061984800F0F4FE0122A0
:100D30004FF40061954800F0EEFE00224FF4805120
:100D4000924800F0E8FE7B68032B27D10022402167
:100D50008E4800F0E0FE002280218C4800F0DBFE8F
:100D600000224FF48071894800F0D5FE00224FF434
:100D70000071864800F0CFFE01224FF48061834865
:100D800000F0C9FE01224FF40061804800F0C3FE6C
:100D900000224FF480517D4800F0BDFE7B68042B9B
:100DA00027D101224021794800F0B5FE00228021A0
:100DB000764800F0B0FE00224FF48071734800F0D6
:100DC000AAFE01224FF40071704800F0A4FE012237
:100DD0004FF480616D4800F09EFE00224FF40061E8
:100DE0006A4800F098FE00224FF48051674800F0F6
:100DF00092FE7B68052B27D100224021634800F03A
:100E00008AFE01228021614800F085FE00224FF415
:100E100080715E4800F07FFE00224FF400715B4855
:100E200000F079FE01224FF48061584800F073FE13
:100E300000224FF40061554800F06DFE00224FF48F
:100E40008051524800F067FE7B68062B27D10022B4
:100E500040214E4800F05FFE012280214B4800F007
:100E60005AFE00224FF48071484800F054FE0022E0
:100E70004FF40071454800F04EFE00224FF48061AF
:100E8000424800F048FE00224FF400613F4800F065
:100E900042FE00224FF480513C4800F03CFE7B684B
:100EA000072B27D100224021384800F034FE0022D1
:100EB0008021364800F02FFE00224FF48071334825
:100EC00000F029FE01224FF40071304800F023FEAB
:100ED00001224FF480612D4800F01DFE01224FF4E5
:100EE00000612A4800F017FE01224FF48051274884
:100EF00000F011FE7B68082B27D1002240212348F7
:100F000000F009FE00228021204800F004FE0022AB
:100F10004FF480711D4800F0FEFD00224FF4007177
:100F20001A4800F0F8FD00224FF48061174800F0E5
:100F3000F2FD00224FF40061144800F0ECFD0022A5
:100F40004FF48051114800F0E6FD7B68092B2CD14D
:100F5000002240210D4800F0DEFD002280210B48D8
:100F600000F0D9FD00224FF48071084800F0D3FD55
:100F700001224FF40071054800F0CDFD01224FF42D
:100F80008061024800F0C7FD02E000BF0008014098
:100F900000224FF40061074800F0BDFD00224FF42D
:100FA0008051044800F0B7FD00BF00BF0837BD46C0
:100FB00080BD00BF0008014080B500AF394B1B6801
:100FC000022B49D0022B65DC002B02D0012B07D06D
:100FD00060E00820FFF732FE324B01221A605EE02B
:100FE000314B1B681846FFF729FE304B1B68012B5D
:100FF00007D12E4B00221A6042F2107000F0C8F99F
:1010000016E02A4B5B68012B07D1284B00225A605F
:1010100042F2107000F0BCF90AE0244B9B68012BEF
:1010200006D1224B00229A6042F2107000F0B0F913
:101030001F4B1B68012B2FD11D4B00221A601A4B2E
:101040001B68013B184A1360164B02221A604FF4CA
:101050007A7000F04DF91FE0134B1B681846FFF73C
:10106000EDFD144B1B68012B18D10F4B1B68013B86
:101070000D4A13600C4B1B68002B04DD4FF47A7093
:1010800000F036F90AE00020FFF7D8FD054B0122F9
:101090001A6003E000BF02E000BF00E000BF00BF35
:1010A00080BD00BFD4000020D0000020C40000207C
:1010B000280100202001002080B582B000AF7860B8
:1010C0000E4B1B68013B0D4A13600C4B1B68002B39
:1010D00006DC0A4B64221A602021094800F033FD27
:1010E000084B1B68012B01D1FFF70CFD00F036F90E
:1010F00000F01AF900BF0837BD4680BD340000205B
:1011000000080140D400002080B500AF00F000FAD4
:1011100000F012F800F098F800F04AF8044801F0E6
:1011200063F9044B00221A60FFF746FFFCE700BF9B
:10113000D8000020D400002080B590B000AF07F1A7
:10114000180328220021184601F00CFD3B1D002247
:101150001A605A609A60DA601A610223BB61012347
:10116000BB621023FB6200237B6307F11803184660
:1011700000F002FD0346002B01D000F0B3F80F236E
:101180007B600023BB600023FB6000233B610023E6
:101190007B613B1D0021184600F070FF0346002BC9
:1011A00001D000F09FF800BF4037BD4680BD000071
:1011B00080B586B000AF07F1080300221A605A60BC
:1011C0009A60DA603B4600221A605A601D4B4FF06D
:1011D00080421A601B4B41F63F725A60194B002245
:1011E0009A60184B0922DA60164B00221A61154BDF
:1011F00000229A61134801F0A7F80346002B01D0A2
:1012000000F070F84FF48053BB6007F108031946F3
:101210000C4801F03DFA0346002B01D000F062F8C3
:1012200000233B6000237B603B461946054801F0E4
:1012300005FC0346002B01D000F054F800BF18371E
:10124000BD4680BDD800002080B586B000AF07F154
:10125000080300221A605A609A60DA601E4B9B698C
:101260001D4A43F0100393611B4B9B6903F010036D
:101270007B607B68184B9B69174A43F004039361BA
:10128000154B9B6903F004033B603B6800224FF45D
:10129000FF51124800F03FFC4FF46043BB60002355
:1012A000FB6001233B6107F1080319460C4800F07D
:1012B0009FFA4FF4FF53BB600123FB6000233B61A7
:1012C00002237B6107F108031946044800F090FAF5
:1012D00000BF1837BD4680BD001002400008014025
:1012E0000010014080B400AF72B600BFFEE70000FE
:1012F00080B483B000AF78607B68084A82FB031239
:101300009210DB17D31A064A1360064B00221A60AC
:1013100000BF0C37BD4680BC704700BF676666667D
:10132000240100202001002080B400AF094B1B687D
:10133000002B0BDD074B1B68013B064A1360054B76
:101340001B68002B02DC044B01221A6000BFBD4663
:1013500080BC7047240100202001002080B400AF31
:10136000094B1B68002B0BDD074B1B68013B064A32
:101370001360054B1B68002B02DC044B01221A6032
:1013800000BFBD4680BC70472C0100202801002012
:1013900080B483B000AF78607B68084A82FB031298
:1013A0009210DB17D31A064A1360064B00221A600C
:1013B00000BF0C37BD4680BC704700BF67666666DD
:1013C0002C0100202801002080B483B000AF0E4B18
:1013D0009B690D4A43F0010393610B4B9B6903F03A
:1013E00001037B607B68084BDB69074A43F080534D
:1013F000D361054BDB6903F080533B603B6800BF62
:101400000C37BD4680BC70470010024080B584B0E8
:1014100000AF78607B681B68B3F1804F13D10C4B31
:10142000DB690B4A43F00103D361094BDB6903F02D
:101430000103FB60FB68002200211C2000F0A1F9E1
:101440001C2000F0BAF900BF1037BD4680BD00BFB8
:101450000010024080B400AFFEE780B400AFFEE7AA
:1014600080B400AFFEE780B400AFFEE780B400AF09
:10147000FEE780B400AF00BFBD4680BC704780B4BB
:1014800000AF00BFBD4680BC704780B400AF00BF56
:10149000BD4680BC704780B500AF00F07FF800BF4C
:1014A00080BD000080B500AF024800F0E9FF00BF3A
:1014B00080BD00BFD800002080B400AF00BFBD4693
:1014C00080BC70470C480D490D4A002302E0D458F7
:1014D000C4500433C4188C42F9D30A4A0A4C00237E
:1014E00001E013600432A242FBD3FFF7E5FF01F0F5
:1014F00015FBFFF709FE704700000020A800002040
:10150000B0390008A800002034010020FEE70000E8
:1015100080B500AF084B1B68074A43F01003136007
:10152000032000F023F90F2000F008F8FFF74CFF2C
:101530000023184680BD00BF0020024080B582B065
:1015400000AF7860124B1A68124B1B7819464FF4A3
:101550007A73B3FBF1F3B2FBF3F3184600F03BF9F7
:101560000346002B01D001230EE07B680F2B0AD825
:10157000002279684FF0FF3000F003F9064A7B68DB
:101580001360002300E0012318460837BD4680BDE4
:1015900038000020400000203C00002080B400AF54
:1015A000054B1B781A46054B1B681344034A13600E
:1015B00000BFBD4680BC70474000002030010020C5
:1015C00080B400AF024B1B681846BD4680BC704714
:1015D0003001002080B485B000AF78607B6803F0F4
:1015E0000703FB600C4BDB68BB60BA684FF6FF0378
:1015F0001340BB60FB681A02BB68134343F0BF6330
:1016000043F40033BB60044ABB68D36000BF1437A7
:10161000BD4680BC704700BF00ED00E080B400AF65
:10162000044BDB681B0A03F007031846BD4680BC69
:10163000704700BF00ED00E080B483B000AF034608
:10164000FB7197F90730002B0BDBFB7903F01F02CE
:10165000064997F907305B09012000FA02F241F8C8
:10166000232000BF0C37BD4680BC704700E100E07E
:1016700080B483B000AF03463960FB7197F907303F
:10168000002B0ADB3B68DAB20C4997F907301201EC
:10169000D2B20B4483F800230AE03B68DAB208496F
:1016A000FB7903F00F03043B1201D2B20B441A760C
:1016B00000BF0C37BD4680BC704700BF00E100E0B2
:1016C00000ED00E080B489B000AFF860B9607A60E6
:1016D000FB6803F00703FB61FB69C3F10703042BFD
:1016E00028BF0423BB61FB690433062B02D9FB69C5
:1016F000033B00E000237B614FF0FF32BB6902FA3D
:1017000003F3DA43BB681A407B699A404FF0FF311C
:101710007B6901FA03F3D9437B680B4013431846F6
:101720002437BD4680BC704780B582B000AF78607A
:101730007B68013BB3F1807F01D301230FE00A4AAC
:101740007B68013B53600F214FF0FF30FFF790FFA4
:10175000054B00229A60044B07221A6000231846AA
:101760000837BD4680BD00BF10E000E080B582B004
:1017700000AF78607868FFF72DFF00BF0837BD46DF
:1017800080BD80B586B000AF0346B9607A60FB7358
:1017900000237B61FFF742FF78617A68B968786956
:1017A000FFF790FF024697F90F3011461846FFF7F2
:1017B0005FFF00BF1837BD4680BD80B582B000AF67
:1017C0000346FB7197F907301846FFF735FF00BF56
:1017D0000837BD4680BD80B582B000AF78607868BC
:1017E000FFF7A2FF034618460837BD4680BD00003C
:1017F00080B48BB000AF7860396000237B62002337
:101800003B6261E101227B6A02FA03F3FB613B6800
:101810001B68FA691340BB61BA69FB699A4240F0E0
:1018200050813B685B68974A93425ED0954A9342E9
:1018300075D8954A934258D0934A93426FD8934AA9
:10184000934252D0914A934269D8914A93424CD0E4
:101850008F4A934263D88F4A934246D08D4A93422F
:101860005DD8122B2AD8122B59D801A252F823F096
:10187000EB180008C5180008D71800081919000847
:101880001F1900081F1900081F1900081F19000858
:101890001F1900081F1900081F1900081F19000848
:1018A0001F1900081F1900081F1900081F19000838
:1018B0001F190008CD180008E1180008764A934265
:1018C00013D02CE03B68DB683B6229E03B68DB68B7
:1018D00004333B6224E03B68DB6808333B621FE073
:1018E0003B68DB680C333B621AE03B689B68002B6B
:1018F00002D104233B6213E03B689B68012B05D1B6
:1019000008233B627B68FA691A6109E008233B629D
:101910007B68FA695A6103E000233B6200E000BF84
:10192000BB69FF2B01D87B6801E07B6804337B61D6
:10193000BB69FF2B02D87B6A9B0002E07B6A083BF5
:101940009B003B617B691A680F213B6901FA03F335
:10195000DB431A40396A3B6901FA03F31A437B6996
:101960001A603B685B6803F08053002B00F0A9808D
:101970004A4B9B69494A43F001039361474B9B697A
:1019800003F00103BB60BB68454A7B6A9B080233D6
:1019900052F82330FB607B6A03F003039B000F22A5
:1019A00002FA03F3DB43FA681340FB607B683D4AAD
:1019B00093420DD07B683C4A934207D07B683B4AF8
:1019C000934201D1022304E0032302E0012300E05B
:1019D00000237A6A02F0030292009340FA681343EC
:1019E000FB602F497B6A9B080233FA6841F8232089
:1019F0003B685B6803F48033002B06D02C4B1A68DD
:101A00002B49BB6913430B6006E0294B1A68BB697D
:101A1000DB43274913400B603B685B6803F40033EA
:101A2000002B06D0224B5A682149BB6913434B60F7
:101A300006E01F4B5A68BB69DB431D4913404B60EE
:101A40003B685B6803F48013002B06D0184B9A6840
:101A50001749BB6913438B6006E0154B9A68BB6955
:101A6000DB43134913408B603B685B6803F400134E
:101A7000002B1FD00E4BDA680D49BB691343CB60B6
:101A80001FE000BF000032100000311000002210E3
:101A90000000211000001210000011100010024080
:101AA0000000014000080140000C0140001001400E
:101AB000000401400B4BDA68BB69DB430949134062
:101AC000CB607B6A01337B623B681A687B6A22FACF
:101AD00003F3002B7FF496AE00BF00BF2C37BD464A
:101AE00080BC70470004014080B485B000AF7860CE
:101AF0000B467B807B689A687B881340002B02D062
:101B00000123FB7301E00023FB73FB7B18461437B2
:101B1000BD4680BC704780B483B000AF78600B4690
:101B20007B8013467B707B78002B03D07A887B68A0
:101B30001A6103E07B881A047B681A6100BF0C37C6
:101B4000BD4680BC704780B485B000AF78600B465E
:101B50007B807B68DB68FB607A88FB6813401A0433
:101B6000FB68D9437B880B401A437B681A6100BF2E
:101B70001437BD4680BC704780B586B000AF786032
:101B80007B68002B01D1012372E27B681B6803F0A4
:101B90000103002B00F08780924B5B6803F00C037D
:101BA000042B0CD08F4B5B6803F00C03082B12D175
:101BB0008C4B5B6803F48033B3F5803F0BD1894BCA
:101BC0001B6803F40033002B6CD07B685B68002B30
:101BD00068D101234CE27B685B68B3F5803F06D196
:101BE000804B1B687F4A43F4803313602EE07B6890
:101BF0005B68002B0CD17B4B1B687A4A23F4803343
:101C00001360784B1B68774A23F4802313601DE030
:101C10007B685B68B3F5A02F0CD1724B1B68714ACF
:101C200043F4802313606F4B1B686E4A43F4803388
:101C300013600BE06B4B1B686A4A23F4803313601C
:101C4000684B1B68674A23F4802313607B685B68DA
:101C5000002B13D0FFF7B4FC386108E0FFF7B0FCAD
:101C600002463B69D31A642B01D9032300E25D4B82
:101C70001B6803F40033002BF0D014E0FFF7A0FC46
:101C8000386108E0FFF79CFC02463B69D31A642BDD
:101C900001D90323ECE1534B1B6803F40033002B01
:101CA000F0D100E000BF7B681B6803F00203002B4B
:101CB00063D04C4B5B6803F00C03002B0BD0494BFB
:101CC0005B6803F00C03082B1CD1464B5B6803F4E4
:101CD0008033002B16D1434B1B6803F00203002B0B
:101CE00005D07B681B69012B01D00123C0E13D4B6E
:101CF0001B6823F0F8027B685B69DB0039491343FA
:101D00000B603AE07B681B69002B20D0364B012228
:101D10001A60FFF755FC386108E0FFF751FC0246F6
:101D20003B69D31A022B01D90323A1E12D4B1B6878
:101D300003F00203002BF0D02A4B1B6823F0F802BB
:101D40007B685B69DB00274913430B6015E0264B7A
:101D500000221A60FFF734FC386108E0FFF730FC1E
:101D600002463B69D31A022B01D9032380E11D4BA4
:101D70001B6803F00203002BF0D17B681B6803F0A3
:101D80000803002B3AD07B689B69002B19D0174BB6
:101D900001221A60FFF714FC386108E0FFF710FC1D
:101DA00002463B69D31A022B01D9032360E10D4B94
:101DB0005B6A03F00203002BF0D0012000F0A6FACA
:101DC0001CE00A4B00221A60FFF7FAFB38610FE0B3
:101DD000FFF7F6FB02463B69D31A022B08D903230F
:101DE00046E100BF0010024000004242800442422F
:101DF000924B5B6A03F00203002BE9D17B681B68FE
:101E000003F00403002B00F0A6800023FB758B4B2E
:101E1000DB6903F08053002B0DD1884BDB69874AC7
:101E200043F08053D361854BDB6903F08053BB6083
:101E3000BB680123FB75824B1B6803F48073002B86
:101E400018D17F4B1B687E4A43F480731360FFF701
:101E5000B7FB386108E0FFF7B3FB02463B69D31AD2
:101E6000642B01D9032303E1754B1B6803F48073D2
:101E7000002BF0D07B68DB68012B06D16F4B1B6A0F
:101E80006E4A43F0010313622DE07B68DB68002B90
:101E90000CD16A4B1B6A694A23F001031362674B3A
:101EA0001B6A664A23F0040313621CE07B68DB684C
:101EB000052B0CD1614B1B6A604A43F0040313628B
:101EC0005E4B1B6A5D4A43F0010313620BE05B4B00
:101ED0001B6A5A4A23F001031362584B1B6A574A84
:101EE00023F0040313627B68DB68002B15D0FFF737
:101EF00067FB38610AE0FFF763FB02463B69D31AD0
:101F000041F28832934201D90323B1E04B4B1B6A63
:101F100003F00203002BEED014E0FFF751FB386111
:101F20000AE0FFF74DFB02463B69D31A41F28832C3
:101F3000934201D903239BE0404B1B6A03F0020349
:101F4000002BEED1FB7D012B05D13C4BDB693B4ADD
:101F500023F08053D3617B68DB69002B00F087801E
:101F6000364B5B6803F00C03082B61D07B68DB69A0
:101F7000022B46D1334B00221A60FFF721FB386158
:101F800008E0FFF71DFB02463B69D31A022B01D97B
:101F900003236DE0294B1B6803F00073002BF0D185
:101FA0007B681B6AB3F5803F08D1244B5B6823F440
:101FB00000327B689B68214913434B601F4B5B6871
:101FC00023F474127B68196A7B685B6A0B431B49B4
:101FD00013434B601B4B01221A60FFF7F1FA386183
:101FE00008E0FFF7EDFA02463B69D31A022B01D94C
:101FF00003233DE0114B1B6803F00073002BF0D06E
:1020000035E0104B00221A60FFF7DAFA386108E079
:10201000FFF7D6FA02463B69D31A022B01D90323F4
:1020200026E0064B1B6803F00073002BF0D11EE086
:102030007B68DB69012B07D1012319E00010024006
:1020400000700040600042420B4B5B68FB60FB6825
:1020500003F480327B681B6A9A4206D1FB6803F462
:1020600070127B685B6A9A4201D0012300E0002372
:1020700018461837BD4680BD0010024080B584B0B8
:1020800000AF786039607B68002B01D10123D0E07C
:102090006A4B1B6803F007033A689A4210D9674BF2
:1020A0001B6823F0070265493B6813430B60634BD1
:1020B0001B6803F007033A689A4201D00123B8E095
:1020C0007B681B6803F00203002B20D07B681B6831
:1020D00003F00403002B05D0594B5B68584A43F4C6
:1020E000E06353607B681B6803F00803002B05D096
:1020F000534B5B68524A43F460535360504B5B68E8
:1021000023F0F0027B689B684D4913434B607B686A
:102110001B6803F00103002B40D07B685B68012B38
:1021200007D1474B1B6803F40033002B15D1012363
:102130007FE07B685B68022B07D1414B1B6803F093
:102140000073002B09D1012373E03D4B1B6803F0A2
:102150000203002B01D101236BE0394B5B6823F0B4
:1021600003027B685B68364913434B60FFF728FA2C
:10217000F8600AE0FFF724FA0246FB68D31A41F23E
:102180008832934201D9032353E02D4B5B6803F05F
:102190000C027B685B689B009A42EBD1274B1B6863
:1021A00003F007033A689A4210D2244B1B6823F0CD
:1021B000070222493B6813430B60204B1B6803F066
:1021C00007033A689A4201D0012332E07B681B681A
:1021D00003F00403002B08D0194B5B6823F4E06282
:1021E0007B68DB68164913434B607B681B6803F010
:1021F0000803002B09D0124B5B6823F460527B6804
:102200001B69DB000E4913434B6000F021F80246C6
:102210000B4B5B681B0903F00F030A49CB5C22FAE6
:1022200003F3094A1360094B1B681846FFF786F948
:10223000002318461037BD4680BD00BF0020024075
:102240000010024068390008380000203C000020DF
:1022500090B48AB000AF294B3C1D0FCB84E80F002F
:1022600040F201233B800023FB610023BB6100237C
:102270007B6200237B6100233B62214B5B68FB6137
:10228000FB6903F00C03042B02D0082B03D02BE0D6
:102290001C4B3B622BE0FB699B0C03F00F032833C4
:1022A0003B4413F8243C7B61FB6903F48033002B2F
:1022B00012D0134B5B685B0C03F0010328333B44E3
:1022C00013F8283CBB617B690E4A03FB02F2BB6931
:1022D000B2FBF3F37B6204E07B690B4A02FB03F37E
:1022E0007B627B6A3B6202E0064B3B6200BF3B6A5B
:1022F00018462837BD4690BC704700BF58390008C3
:102300000010024000127A0000093D0080B485B040
:1023100000AF78600A4B1B680A4AA2FB03235B0AE2
:102320007A6802FB03F3FB6000BFFB685A1EFA6089
:10233000002BF9D100BF00BF1437BD4680BC7047E9
:1023400038000020D34D621080B582B000AF7860B5
:102350007B68002B01D1012341E07B6893F83D307D
:10236000DBB2002B06D17B68002283F83C20786822
:10237000FFF74CF87B68022283F83D207B681A68DF
:102380007B6804331946104600F06AFA7B68012224
:1023900083F846207B68012283F83E207B68012277
:1023A00083F83F207B68012283F840207B6801226C
:1023B00083F841207B68012283F842207B68012258
:1023C00083F843207B68012283F844207B68012244
:1023D00083F845207B68012283F83D2000231846BE
:1023E0000837BD4680BD000080B485B000AF78607E
:1023F0007B6893F83D30DBB2012B01D0012335E03F
:102400007B68022283F83D207B681B68DA687B6862
:102410001B6842F00102DA607B681B68164A93422F
:1024200009D07B681B68B3F1804F04D07B681B68C0
:10243000124A934211D17B681B689B6803F0070323
:10244000FB60FB68062B10D07B681B681A687B68F2
:102450001B6842F001021A6007E07B681B681A687B
:102460007B681B6842F001021A600023184614378B
:10247000BD4680BC704700BF002C014000040040F6
:1024800080B582B000AF78607B681B681B6903F081
:102490000203022B22D17B681B68DB6803F0020376
:1024A000022B1BD17B681B686FF002021A617B68EC
:1024B00001221A777B681B689B6903F00303002BDA
:1024C00003D0786800F0B1F905E0786800F0A4F96D
:1024D000786800F0B3F97B6800221A777B681B6884
:1024E0001B6903F00403042B22D17B681B68DB68A3
:1024F00003F00403042B1BD17B681B686FF00402FC
:102500001A617B6802221A777B681B689B6903F457
:102510004073002B03D0786800F087F905E07868F5
:1025200000F07AF9786800F089F97B6800221A7760
:102530007B681B681B6903F00803082B22D17B68AA
:102540001B68DB6803F00803082B1BD17B681B6842
:102550006FF008021A617B6804221A777B681B6897
:10256000DB6903F00303002B03D0786800F05DF90A
:1025700005E0786800F050F9786800F05FF97B6852
:1025800000221A777B681B681B6903F01003102B6D
:1025900022D17B681B68DB6803F01003102B1BD172
:1025A0007B681B686FF010021A617B6808221A773B
:1025B0007B681B68DB6903F44073002B03D07868E9
:1025C00000F033F905E0786800F026F9786800F04B
:1025D00035F97B6800221A777B681B681B6903F05A
:1025E0000103012B0ED17B681B68DB6803F001033C
:1025F000012B07D17B681B686FF001021A617868B4
:10260000FEF75AFD7B681B681B6903F08003802B73
:102610000ED17B681B68DB6803F08003802B07D139
:102620007B681B686FF080021A61786800F067FAB7
:102630007B681B681B6903F04003402B0ED17B684D
:102640001B68DB6803F04003402B07D17B681B68E5
:102650006FF040021A61786800F0F9F87B681B6837
:102660001B6903F02003202B0ED17B681B68DB68FD
:1026700003F02003202B07D17B681B686FF020023A
:102680001A61786800F032FA00BF0837BD4680BD95
:1026900080B584B000AF786039607B6893F83C30D7
:1026A000012B01D10223B3E07B68012283F83C2097
:1026B0007B68022283F83D207B681B689B68FB6077
:1026C000FB6823F07703FB60FB6823F47F43FB6028
:1026D0007B681B68FA689A603B681B68B3F5005F0B
:1026E0003ED0B3F5005F00F28780B3F5805F00F065
:1026F0008580B3F5805F7FD8702B1AD0702B7BD884
:10270000602B50D0602B77D8502B3CD0502B73D8F7
:10271000402B58D0402B6FD8302B64D0302B6BD847
:10272000202B60D0202B67D8002B5CD0102B5AD0E8
:1027300062E07B6818683B6899683B685A683B6848
:10274000DB6800F05CF97B681B689B68FB60FB68DA
:1027500043F07703FB607B681B68FA689A604EE081
:102760007B6818683B6899683B685A683B68DB6817
:1027700000F045F97B681B689A687B681B6842F427
:1027800080429A603BE07B6818683B6859683B6808
:10279000DB681A4600F0BCF87B681B6850211846BD
:1027A00000F013F92BE07B6818683B6859683B68B8
:1027B000DB681A4600F0DAF87B681B68602118466F
:1027C00000F003F91BE07B6818683B6859683B68B8
:1027D000DB681A4600F09CF87B681B6840211846AD
:1027E00000F0F3F80BE07B681A683B681B68194639
:1027F000104600F0EAF802E000BF00E000BF7B688E
:10280000012283F83D207B68002283F83C200023CE
:1028100018461037BD4680BD80B483B000AF7860E5
:1028200000BF0C37BD4680BC704780B483B000AF9A
:10283000786000BF0C37BD4680BC704780B483B061
:1028400000AF786000BF0C37BD4680BC704780B4D5
:1028500083B000AF786000BF0C37BD4680BC7047C6
:1028600080B485B000AF786039607B681B68FB601E
:102870007B68254A934207D07B68B3F1804F03D031
:102880007B68224A934208D1FB6823F07003FB6007
:102890003B685B68FA681343FB607B681A4A9342A3
:1028A00007D07B68B3F1804F03D07B68174A93420F
:1028B00008D1FB6823F44073FB603B68DB68FA686F
:1028C0001343FB60FB6823F080023B685B691343A2
:1028D000FB607B68FA681A603B689A687B68DA621A
:1028E0003B681A687B689A627B68074A934203D107
:1028F0003B681A697B681A637B6801225A6100BFD2
:102900001437BD4680BC7047002C014000040040D5
:1029100080B487B000AFF860B9607A60FB681B6A6A
:102920007B61FB681B6A23F00102FB681A62FB688B
:102930009B693B613B6923F0F0033B617B681B01B2
:102940003A6913433B617B6923F00A037B617A692F
:10295000BB6813437B61FB683A699A61FB687A69DB
:102960001A6200BF1C37BD4680BC704780B487B078
:1029700000AFF860B9607A60FB681B6A23F0100250
:10298000FB681A62FB689B697B61FB681B6A3B61A1
:102990007B6923F470437B617B681B037A69134373
:1029A0007B613B6923F0A0033B61BB681B013A6973
:1029B00013433B61FB687A699A61FB683A691A6262
:1029C00000BF1C37BD4680BC704780B485B000AFE7
:1029D000786039607B689B68FB60FB6823F070035C
:1029E000FB603A68FB68134343F00703FB607B68B6
:1029F000FA689A6000BF1437BD4680BC704780B447
:102A000087B000AFF860B9607A603B60FB689B6894
:102A10007B617B6923F47F437B613B681A027B689F
:102A20001A43BB6813437A6913437B61FB687A6975
:102A30009A6000BF1C37BD4680BC704780B485B02B
:102A400000AF786039607B6893F83C30012B01D18E
:102A5000022341E07B68012283F83C207B6802224C
:102A600083F83D207B681B685B68FB607B681B68A4
:102A70009B68BB60FB6823F07003FB603B681B68CE
:102A8000FA681343FB607B681B68FA685A607B68CE
:102A90001B68144A934209D07B681B68B3F1804FCE
:102AA00004D07B681B68104A93420CD1BB6823F0AA
:102AB0008003BB603B685B68BA681343BB607B689C
:102AC0001B68BA689A607B68012283F83D207B68A6
:102AD000002283F83C20002318461437BD4680BCF2
:102AE000704700BF002C01400004004080B483B058
:102AF00000AF786000BF0C37BD4680BC704780B423
:102B000083B000AF786000BF0C37BD4680BC704713
:102B1000014B1868704700BF4400002070B50026C4
:102B20000C4D0D4C641BA410A64209D100F006FF09
:102B300000260A4D0A4C641BA410A64205D170BDA4
:102B400055F8043B98470136EEE755F8043B9847A3
:102B50000136F2E7A8390008A8390008A8390008AA
:102B6000AC39000803460244934200D1704703F891
:102B7000011BF9E72DE9F84314461D4680468946B6
:102B800000F062F8224606460F462B4620462946AC
:102B9000FDF734FFC8BB0022002340464946FDF73D
:102BA000FBFEB8B10022002320462946FDF7F4FEC3
:102BB000002841D12046294600F03BFE28B30022E0
:102BC000002320462946FDF7F1FEF0B1FFF7A0FFF4
:102BD000222319E03046394600F02BFEC8B94046A2
:102BE000494600F026FEA0B12046294600F021FE0D
:102BF00078B132463B4630463946FDF7FFFE0028A5
:102C0000E4D0FFF785FF2123036030463946BDE855
:102C1000F8830022002330463946FDF7BDFE002828
:102C2000F3D04046494600F004FE0028EDD020468F
:102C3000294600F0FEFDC8E70026014FE5E700BF8A
:102C40000000F03F000000002DE9F04F93B0CDE907
:102C50000223DDE9022727F00046894656EA0201F1
:102C6000804611D1031889F4002252419942824BC7
:102C7000934180F0B984DDE9022340464946FDF7DF
:102C80006DFA83468C466FE07C4B29F000449C42F1
:102C90004D46824606DC01D10028ECD19E4201DC83
:102CA0000FD172B105F1404505F5801555EA0A05C9
:102CB000E1D1DDE90232DB1882F4002252419D426B
:102CC000D5E7002D39DA6E4B9E4252DCA3F15473E6
:102CD0009E4240F39C843315A3F2FF33142B0FDD87
:102CE000C3F1340322FA03F101FA03F3934240F0F3
:102CF0008E8401F00101C1F10203009382B15DE015
:102D0000002A59D1C3F1140346FA03F101FA03F37F
:102D1000B34240F0798401F00101C1F10203009354
:102D2000584B9E4232D1002F80F26A8442464B4675
:102D300000205449FDF7F2FCA3E700230093002A8A
:102D40003CD14E4B9E42EBD104F1404303F580133E
:102D500053EA0A0300F048844B4B9C420BDD002FE2
:102D6000C0F24884DDE902BC5846614613B0BDE8B4
:102D7000F08F0223E2E7002F4FF0000B4FF0000C22
:102D8000F2DADDE902B303F1004CEDE7B7F1804F71
:102D900006D142464B4640464946FDF795FB70E753
:102DA0003A4B9F420AD1002D08DB4046494613B0FA
:102DB000BDE8F04F00F05EBC00230093404649465A
:102DC00000F034FD83468C46BAF1000F28D124B1BF
:102DD0002C4B25F040429A4222D1002F07DA5A4666
:102DE000634600202749FDF799FC83468C46002D59
:102DF000BADA009B04F1404404F58014234308D15F
:102E00005A46634658466146FDF7A6F902460B4608
:102E100090E7009B012BA7D10CF100439C46A3E750
:102E2000EB0F013B0C930C9A009B134304D14246D9
:102E30004B4640464946E7E7154B9E4240F3F68035
:102E400003F104739E42104B09DD9C420CDC002F01
:102E50000CDA002013B0BDE8F04F00F0E2BC9C4259
:102E6000F5DB084B9C4215DD002FF2DC002013B08F
:102E7000BDE8F04F00F0D0BC0000F0FF0000F07F94
:102E8000FFFF3F430000F03FFFFFEF3F0000E03F48
:102E90000000E0416146002258465F4BFDF75CF9B7
:102EA00055A3D3E9002304460D46FDF70DFB54A3BB
:102EB000D3E9002306460F4620462946FDF704FBCA
:102EC000002282468B4620462946544BFDF7FCFAE9
:102ED00002460B464CA1D1E90001FDF73DF922461F
:102EE0002B46FDF7F1FA02460B4600204C49FDF750
:102EF00033F922462B468046894620462946FDF76F
:102F0000E3FA02460B4640464946FDF7DDFA40A388
:102F1000D3E90023FDF7D8FA02460B46504659463E
:102F2000FDF71AF94FF0000A02460B4604460D461B
:102F300030463946FDF712F932463B4650468B463D
:102F4000FDF70AF902460B4620462946FDF704F92B
:102F5000DDE90267009B0C9A013B13434FF000062A
:102F60004FF000020CBF2F4B2B4B04460D46DDE902
:102F70000201CDE9002332463B46FDF7EDF852460B
:102F80005B46FDF7A1FADDE902238046894620462B
:102F90002946FDF799FA02460B4640464946FDF799
:102FA000DDF832463B468046894650465946FDF795
:102FB0008BFA04460D460B46024649464046CDE98B
:102FC0000245FDF7CBF8184B824699420F460E4654
:102FD00040F3E58201F13F4303F5E003034300F0D2
:102FE000DF81DDE9000100220023FDF7DFFC00386E
:102FF00018BF01202EE700BF000000604715F73F13
:1030000044DF5DF80BAE543E555555555555D53FEB
:10301000FE822B654715F73F0000F03F0000D03FD0
:103020000000E03F0000F0BFFFFF8F40D24B0022C6
:103030002B4043B958466146D04BFDF745FA6FF037
:10304000340283460C462315A3F2FF3313440B933B
:10305000CB4BC4F3130444F07F559C4245F4401518
:1030600008DDC84B9C4240F399810B9BA5F5801568
:1030700001330B930026F3000D93C34B584603EB2B
:10308000C603D3E9003429461A46CDE9083423465D
:10309000FDF762F8DA462B465246CDE90E01DDE92E
:1030A0000801FDF75BF802460B460020B749FDF723
:1030B00035FB02460B46CDE91001DDE90E01FDF7B7
:1030C00003FACDE90601DDE90634CDE90434002335
:1030D0000022AB466D1045F00055049305F5002520
:1030E000DDE9048905EB86434046494614461D4602
:1030F000FDF7EAF902460B46DDE90E01FDF72CF873
:10310000DDE9082306460F4620462946FDF724F848
:1031100002460B4650465946FDF71EF842464B46BE
:10312000FDF7D2F902460B4630463946FDF714F852
:10313000DDE91023FDF7C8F9DDE90623CDE9080133
:1031400010461946FDF7C0F979A3D3E900230446D8
:103150000D46FDF7B9F978A3D3E90023FCF7FEFF8C
:1031600022462B46FDF7B0F975A3D3E90023FCF7FF
:10317000F5FF22462B46FDF7A7F973A3D3E90023F9
:10318000FCF7ECFF22462B46FDF79EF970A3D3E92E
:103190000023FCF7E3FF22462B46FDF795F96EA3CB
:1031A000D3E90023FCF7DAFF224606460F462B46FA
:1031B00020462946FDF788F902460B463046394637
:1031C000FDF782F904460D46DDE9060142464B460D
:1031D000FCF7C4FFDDE90823FDF776F922462B460C
:1031E000FCF7BCFF424606460F464B464046494662
:1031F000FDF76AF90022664B82468B46FCF7AEFF6C
:1032000032463B46FCF7AAFF00240D4622460B46F9
:1032100040464946FDF758F9002280468946204637
:1032200029465B4BFCF798FF52465B46FCF794FF40
:1032300002460B4630463946FCF78EFFDDE9062391
:10324000FDF742F9224606460F46DDE908012B4606
:10325000FDF73AF902460B4630463946FCF77EFF49
:10326000002406460F4602460B4640464946FCF7F8
:1032700075FF3BA3D3E9002320460D46FDF724F953
:1032800042464B46CDE9060120462946FCF764FF3D
:1032900002460B4630463946FCF75EFF32A3D3E9BF
:1032A0000023FDF711F932A3D3E9002306460F46A8
:1032B00020462946FDF708F902460B4630463946B6
:1032C000FCF74CFF0D9A334B4FF0000A1344D3E93F
:1032D0000023FCF743FF80460B988946FDF78AF8E8
:1032E00004460D460D9A2C4B1344D3E90067424621
:1032F000DDE906014B46FCF731FF32463B46FCF761
:103300002DFF22462B46FCF729FF22462B4650462E
:103310008B46FCF721FF32463B46FCF71DFFDDE9FB
:103320000623FCF719FF02460B46404649460DE6C8
:10333000EF4E454A287ECA3F65DBC9934A86CD3F9A
:1033400001411DA96074D13F4D268F515555D53F80
:10335000FFAB6FDBB66DDB3F033333333333E33F18
:10336000000000E009C7EE3FFD033ADC09C7EE3F6D
:10337000F5015B14E02F3EBE0000F07F00004043EB
:103380008E98030079B60B00783900080000F03FF2
:1033900000000840983900088839000801266AE6CC
:1033A0009DA3D3E9002340464946FCF7D7FE2246B9
:1033B000CDE904012B4650463946FCF7CDFE0246C6
:1033C0000B46DDE90401FDF70FFB00287FF409AE91
:1033D000A34A26F00043934240F301814FF4801A40
:1033E00000201B15A3F2FE334AFA03F33344C3F360
:1033F0000A529C4FA2F2FF321741C3F3130A23EA89
:103400000701C2F114024AF4801A0B464AFA02FA82
:10341000002E024629462046B8BFCAF1000AFCF732
:103420009BFECDE90201DDE90201002442464B4644
:10343000FCF794FE7AA3D3E9002320460D46FDF75E
:1034400043F8DDE9022306460F4620462946FCF7ED
:1034500083FE02460B4640464946FCF77DFE72A3BA
:10346000D3E90023FDF730F871A3D3E900238046A8
:10347000894620462946FDF727F802460B46404676
:103480004946FCF76BFE04460D4602460B463046A5
:103490003946FCF763FE32463B4680468946FCF7D8
:1034A0005BFE02460B4620462946FCF755FE424687
:1034B00006460F464B4640464946FDF705F85EA3D3
:1034C000D3E9002304460D46FCF7FEFF5CA3D3E9D5
:1034D0000023FCF741FE22462B46FCF7F5FF5AA3DA
:1034E000D3E90023FCF73AFE22462B46FCF7ECFF1B
:1034F00057A3D3E90023FCF72FFE22462B46FCF707
:10350000E3FF55A3D3E90023FCF728FE22462B4610
:10351000FCF7DAFF02460B4640464946FCF71CFE24
:1035200004460D4602460B4640464946FCF7CCFF92
:103530000022CDE902014FF0804320462946FCF7E6
:103540000BFE02460B46DDE90201FDF7E7F83246C5
:1035500004460D463B4640464946FCF7B5FF324619
:103560003B46FCF7FBFD02460B4620462946FCF78E
:10357000F3FD42464B46FCF7EFFD02460B460020AA
:103580003949FCF7E9FD01EB0A54B4F5801F29DA4B
:10359000524600F055F9DDE90023FFF7FEBB334B3F
:1035A00021F000479F427FF713AF314B0B44034399
:1035B00009D0DDE9000100220023FDF7F7F900380A
:1035C00018BF012053E422462B46FCF7C5FD4246B6
:1035D0004B46FDF7FFF900283FF4FAAEE9E74FF05C
:1035E000000A20E72146D6E74FF0000BDFF878C04D
:1035F000FFF7BABB4FF0000B4FF0000CFFF7B4BB66
:1036000040464946FFF73DBB0092FFF789BB0023C8
:10361000FFF773BBAFF30080FE822B654715973C25
:1036200000000000432EE63FEF39FAFE422EE63F4F
:10363000396CA80C615C20BED0A4BE726937663EAE
:10364000F16BD2C541BDBB3E2CDE25AF6A56113FA2
:1036500093BDBE166CC1663F3E5555555555C53F89
:103660000000E03FFFFF0F000000F03FFFCB904065
:1036700000346F3FDFF858C12DE9F0413CEA010CFE
:1036800006460D460C460A46074603460FD102463B
:103690000B46FCF719FF02460B4630462946FCF75D
:1036A0005DFD06460D4630462946BDE8F0810029FD
:1036B0000EDC21F0004C5CEA0707F4D041B1024671
:1036C0000B46FCF749FD02460B46FDF727F8E8E7F5
:1036D000211575D0CC074FF00004C2F31302A1F2FC
:1036E000FF3742F480125EBFD90F5B0001EB42024C
:1036F000D90F01EB4202162520464FF400117F102E
:103700005B0046189642DEBF921B70186418520088
:10371000013D02EBD3724FEA51014FEA4303F0D16E
:1037200029464FF0200E4FF00046824206EB050C72
:1037300002DC13D19C4511D8BCF1000F0CEB06053F
:1037400043DA002D41DB00F10108121A40469C4586
:1037500088BF02F1FF32A3EB0C0331444FEAD37C64
:10376000BEF1010E0CEB42024FEA43034FEA56064C
:10377000DBD1134306D0481C0BBF71460131013425
:1037800021F001016310490803F17F53E20703F5BB
:10379000001348BF41F000410E4603EB075582E796
:1037A000DA0A15385B05002AFAD0D5020AD5C1F12C
:1037B000200423FA04F44D1E8B402243411B89E769
:1037C0000846F0E752000131EFE78046BDE700BF51
:1037D0000000F07F70B504460D461646FFF798F9D5
:1037E00029460660204670BD37B515461C4680B197
:1037F000104603F10041CDE90001DDE90023284630
:103800002146FCF761FE222203B0BDE83040FFF7FD
:10381000E1BF10461946EEE700224FF08053FFF754
:10382000E3BF00224FF0E043FFF7DEBF21F000418D
:10383000704741F0004000F58010C00F7047000055
:10384000F8B5C1F30A5604460D4617460B4696B91D
:1038500021F00043034339D0334B0022FCF734FE00
:10386000324B04469F420D460FDA2BA3D3E90023C7
:10387000FCF72AFE06E040F2FF7296420AD10246A9
:10388000FCF76CFC04460D4620E00B46C1F30A51E0
:10389000A1F1360640F2FE72B91991420EDD05F033
:1038A000004444F0FC4141F45F1141F410512048C0
:1038B00041F03C011AA3D3E90023D9E7002908DD30
:1038C00023F0FF4323F4E00343EA01552046294651
:1038D000F8BD11F1350F12DA4CF250339F424FEA26
:1038E000D5734FEAC374DCDC0BA3D3E9002344F0A7
:1038F000D27141F4B7310F4841F01F01B8E723F00E
:10390000FF43363123F4E00343EA015520462946BC
:103910000022094BACE700BF59F3F8C21F6EA501A6
:103920009C7500883CE4377E00005043B03CFFFFAC
:103930009C75008859F3F8C20000903CF8B500BFB0
:10394000F8BC08BC9E467047F8B500BFF8BC08BC80
:043950009E467047D8
:1039580002030405060708090A0B0C0D0E0F1010C8
:103968000000000000000000010203040607080927
:10397800000000000000F03F000000000000F83FD9
:1039880000000000000000000000004003B8E23F13
:10399800000000000000000006D0CF43EBFD4C3EC5
:0439A80035010008DD
:0439AC0011010008FD
:1039B0000100000000000000000000000100000005
:1039C00000000000000000000100000000000000F6
:1039D00000000000010000000000000000000000E6
:1039E0002C010000640000000024F400100000001E
:1039F000010000004800002000000000000000005E
:103A000000000000000000000000000000000000B6
:103A100000000000000000000000000000000000A6
:103A20000000000000000000000000000000000096
:103A30000000000000000000000000000000000086
:103A40000000000000000000000000000000000076
:083A500000000000000000006E
:04000005080014C516
:00000001FF
